{
  "_format": "hh-sol-artifact-1",
  "contractName": "Crowdfunding",
  "sourceName": "contracts/Crowdfunding.sol",
  "abi": [
    {
      "anonymous": false,
      "inputs": [
        {
          "indexed": true,
          "internalType": "uint256",
          "name": "id",
          "type": "uint256"
        },
        {
          "indexed": true,
          "internalType": "address",
          "name": "owner",
          "type": "address"
        },
        {
          "indexed": false,
          "internalType": "string",
          "name": "title",
          "type": "string"
        },
        {
          "indexed": false,
          "internalType": "uint256",
          "name": "goal",
          "type": "uint256"
        },
        {
          "indexed": false,
          "internalType": "uint256",
          "name": "deadline",
          "type": "uint256"
        }
      ],
      "name": "CampaignCreated",
      "type": "event"
    },
    {
      "anonymous": false,
      "inputs": [
        {
          "indexed": true,
          "internalType": "uint256",
          "name": "id",
          "type": "uint256"
        },
        {
          "indexed": true,
          "internalType": "address",
          "name": "contributor",
          "type": "address"
        },
        {
          "indexed": false,
          "internalType": "uint256",
          "name": "amount",
          "type": "uint256"
        }
      ],
      "name": "ContributionReceived",
      "type": "event"
    },
    {
      "anonymous": false,
      "inputs": [
        {
          "indexed": true,
          "internalType": "uint256",
          "name": "id",
          "type": "uint256"
        },
        {
          "indexed": true,
          "internalType": "address",
          "name": "owner",
          "type": "address"
        },
        {
          "indexed": false,
          "internalType": "uint256",
          "name": "amount",
          "type": "uint256"
        }
      ],
      "name": "FundsWithdrawn",
      "type": "event"
    },
    {
      "anonymous": false,
      "inputs": [
        {
          "indexed": true,
          "internalType": "uint256",
          "name": "id",
          "type": "uint256"
        },
        {
          "indexed": true,
          "internalType": "address",
          "name": "contributor",
          "type": "address"
        },
        {
          "indexed": false,
          "internalType": "uint256",
          "name": "amount",
          "type": "uint256"
        }
      ],
      "name": "RefundIssued",
      "type": "event"
    },
    {
      "inputs": [],
      "name": "campaignCount",
      "outputs": [
        {
          "internalType": "uint256",
          "name": "",
          "type": "uint256"
        }
      ],
      "stateMutability": "view",
      "type": "function"
    },
    {
      "inputs": [
        {
          "internalType": "uint256",
          "name": "",
          "type": "uint256"
        }
      ],
      "name": "campaigns",
      "outputs": [
        {
          "internalType": "address",
          "name": "owner",
          "type": "address"
        },
        {
          "internalType": "string",
          "name": "title",
          "type": "string"
        },
        {
          "internalType": "string",
          "name": "description",
          "type": "string"
        },
        {
          "internalType": "string",
          "name": "category",
          "type": "string"
        },
        {
          "internalType": "string",
          "name": "imageURI",
          "type": "string"
        },
        {
          "internalType": "uint256",
          "name": "goal",
          "type": "uint256"
        },
        {
          "internalType": "uint256",
          "name": "deadline",
          "type": "uint256"
        },
        {
          "internalType": "uint256",
          "name": "raisedAmount",
          "type": "uint256"
        },
        {
          "internalType": "bool",
          "name": "isClaimed",
          "type": "bool"
        }
      ],
      "stateMutability": "view",
      "type": "function"
    },
    {
      "inputs": [
        {
          "internalType": "uint256",
          "name": "_id",
          "type": "uint256"
        }
      ],
      "name": "contribute",
      "outputs": [],
      "stateMutability": "payable",
      "type": "function"
    },
    {
      "inputs": [
        {
          "internalType": "uint256",
          "name": "",
          "type": "uint256"
        },
        {
          "internalType": "address",
          "name": "",
          "type": "address"
        }
      ],
      "name": "contributions",
      "outputs": [
        {
          "internalType": "uint256",
          "name": "",
          "type": "uint256"
        }
      ],
      "stateMutability": "view",
      "type": "function"
    },
    {
      "inputs": [
        {
          "internalType": "string",
          "name": "_title",
          "type": "string"
        },
        {
          "internalType": "string",
          "name": "_description",
          "type": "string"
        },
        {
          "internalType": "string",
          "name": "_category",
          "type": "string"
        },
        {
          "internalType": "string",
          "name": "_imageURI",
          "type": "string"
        },
        {
          "internalType": "uint256",
          "name": "_goal",
          "type": "uint256"
        },
        {
          "internalType": "uint256",
          "name": "_durationInDays",
          "type": "uint256"
        }
      ],
      "name": "createCampaign",
      "outputs": [],
      "stateMutability": "nonpayable",
      "type": "function"
    },
    {
      "inputs": [
        {
          "internalType": "uint256",
          "name": "_id",
          "type": "uint256"
        }
      ],
      "name": "getCampaign",
      "outputs": [
        {
          "components": [
            {
              "internalType": "address",
              "name": "owner",
              "type": "address"
            },
            {
              "internalType": "string",
              "name": "title",
              "type": "string"
            },
            {
              "internalType": "string",
              "name": "description",
              "type": "string"
            },
            {
              "internalType": "string",
              "name": "category",
              "type": "string"
            },
            {
              "internalType": "string",
              "name": "imageURI",
              "type": "string"
            },
            {
              "internalType": "uint256",
              "name": "goal",
              "type": "uint256"
            },
            {
              "internalType": "uint256",
              "name": "deadline",
              "type": "uint256"
            },
            {
              "internalType": "uint256",
              "name": "raisedAmount",
              "type": "uint256"
            },
            {
              "internalType": "bool",
              "name": "isClaimed",
              "type": "bool"
            }
          ],
          "internalType": "struct Crowdfunding.Campaign",
          "name": "",
          "type": "tuple"
        }
      ],
      "stateMutability": "view",
      "type": "function"
    },
    {
      "inputs": [
        {
          "internalType": "uint256",
          "name": "_id",
          "type": "uint256"
        },
        {
          "internalType": "address",
          "name": "_user",
          "type": "address"
        }
      ],
      "name": "getContribution",
      "outputs": [
        {
          "internalType": "uint256",
          "name": "",
          "type": "uint256"
        }
      ],
      "stateMutability": "view",
      "type": "function"
    },
    {
      "inputs": [
        {
          "internalType": "uint256",
          "name": "_id",
          "type": "uint256"
        }
      ],
      "name": "refund",
      "outputs": [],
      "stateMutability": "nonpayable",
      "type": "function"
    },
    {
      "inputs": [
        {
          "internalType": "uint256",
          "name": "_id",
          "type": "uint256"
        }
      ],
      "name": "withdraw",
      "outputs": [],
      "stateMutability": "nonpayable",
      "type": "function"
    }
  ],
  "bytecode": "0x60806040526000805534801561001457600080fd5b5061208e806100246000396000f3fe6080604052600436106100865760003560e01c80635598f8cc116100595780635598f8cc1461015f5780637274e30d1461019c578063a8aee940146101c7578063c1cbbca7146101f0578063e081dbf91461020c57610086565b8063141961bc1461008b578063278ecde1146100d05780632e1a7d4d146100f95780633d891f5914610122575b600080fd5b34801561009757600080fd5b506100b260048036038101906100ad91906111ae565b610249565b6040516100c7999897969594939291906112d6565b60405180910390f35b3480156100dc57600080fd5b506100f760048036038101906100f291906111ae565b6104e4565b005b34801561010557600080fd5b50610120600480360381019061011b91906111ae565b610715565b005b34801561012e57600080fd5b50610149600480360381019061014491906113ab565b610985565b60405161015691906113eb565b60405180910390f35b34801561016b57600080fd5b50610186600480360381019061018191906111ae565b6109aa565b6040516101939190611557565b60405180910390f35b3480156101a857600080fd5b506101b1610caf565b6040516101be91906113eb565b60405180910390f35b3480156101d357600080fd5b506101ee60048036038101906101e991906116ae565b610cb5565b005b61020a600480360381019061020591906111ae565b610f30565b005b34801561021857600080fd5b50610233600480360381019061022e91906113ab565b6110a5565b60405161024091906113eb565b60405180910390f35b60016020528060005260406000206000915090508060000160009054906101000a900473ffffffffffffffffffffffffffffffffffffffff1690806001018054610292906117da565b80601f01602080910402602001604051908101604052809291908181526020018280546102be906117da565b801561030b5780601f106102e05761010080835404028352916020019161030b565b820191906000526020600020905b8154815290600101906020018083116102ee57829003601f168201915b505050505090806002018054610320906117da565b80601f016020809104026020016040519081016040528092919081815260200182805461034c906117da565b80156103995780601f1061036e57610100808354040283529160200191610399565b820191906000526020600020905b81548152906001019060200180831161037c57829003601f168201915b5050505050908060030180546103ae906117da565b80601f01602080910402602001604051908101604052809291908181526020018280546103da906117da565b80156104275780601f106103fc57610100808354040283529160200191610427565b820191906000526020600020905b81548152906001019060200180831161040a57829003601f168201915b50505050509080600401805461043c906117da565b80601f0160208091040260200160405190810160405280929190818152602001828054610468906117da565b80156104b55780601f1061048a576101008083540402835291602001916104b5565b820191906000526020600020905b81548152906001019060200180831161049857829003601f168201915b5050505050908060050154908060060154908060070154908060080160009054906101000a900460ff16905089565b60006001600083815260200190815260200160002090508060060154421015610542576040517f08c379a000000000000000000000000000000000000000000000000000000000815260040161053990611857565b60405180910390fd5b806005015481600701541061058c576040517f08c379a0000000000000000000000000000000000000000000000000000000008152600401610583906118c3565b60405180910390fd5b60006002600084815260200190815260200160002060003373ffffffffffffffffffffffffffffffffffffffff1673ffffffffffffffffffffffffffffffffffffffff16815260200190815260200160002054905060008111610624576040517f08c379a000000000000000000000000000000000000000000000000000000000815260040161061b9061192f565b60405180910390fd5b60006002600085815260200190815260200160002060003373ffffffffffffffffffffffffffffffffffffffff1673ffffffffffffffffffffffffffffffffffffffff168152602001908152602001600020819055503373ffffffffffffffffffffffffffffffffffffffff166108fc829081150290604051600060405180830381858888f193505050501580156106c0573d6000803e3d6000fd5b503373ffffffffffffffffffffffffffffffffffffffff16837f7a482fdeb6bc9a1376f597068a214a7a39472bb2eff1b8cad21ba04f49ddca1b8360405161070891906113eb565b60405180910390a3505050565b60006001600083815260200190815260200160002090508060000160009054906101000a900473ffffffffffffffffffffffffffffffffffffffff1673ffffffffffffffffffffffffffffffffffffffff163373ffffffffffffffffffffffffffffffffffffffff16146107be576040517f08c379a00000000000000000000000000000000000000000000000000000000081526004016107b59061199b565b60405180910390fd5b8060060154421015610805576040517f08c379a00000000000000000000000000000000000000000000000000000000081526004016107fc90611a07565b60405180910390fd5b806005015481600701541015610850576040517f08c379a000000000000000000000000000000000000000000000000000000000815260040161084790611a73565b60405180910390fd5b8060080160009054906101000a900460ff16156108a2576040517f08c379a000000000000000000000000000000000000000000000000000000000815260040161089990611adf565b60405180910390fd5b60018160080160006101000a81548160ff0219169083151502179055508060000160009054906101000a900473ffffffffffffffffffffffffffffffffffffffff1673ffffffffffffffffffffffffffffffffffffffff166108fc82600701549081150290604051600060405180830381858888f1935050505015801561092d573d6000803e3d6000fd5b503373ffffffffffffffffffffffffffffffffffffffff16827ff440aec6b52895984d061d622e6edeba6210f7c3e059be920663140c084560d7836007015460405161097991906113eb565b60405180910390a35050565b6002602052816000526040600020602052806000526040600020600091509150505481565b6109b2611100565b60016000838152602001908152602001600020604051806101200160405290816000820160009054906101000a900473ffffffffffffffffffffffffffffffffffffffff1673ffffffffffffffffffffffffffffffffffffffff1673ffffffffffffffffffffffffffffffffffffffff168152602001600182018054610a37906117da565b80601f0160208091040260200160405190810160405280929190818152602001828054610a63906117da565b8015610ab05780601f10610a8557610100808354040283529160200191610ab0565b820191906000526020600020905b815481529060010190602001808311610a9357829003601f168201915b50505050508152602001600282018054610ac9906117da565b80601f0160208091040260200160405190810160405280929190818152602001828054610af5906117da565b8015610b425780601f10610b1757610100808354040283529160200191610b42565b820191906000526020600020905b815481529060010190602001808311610b2557829003601f168201915b50505050508152602001600382018054610b5b906117da565b80601f0160208091040260200160405190810160405280929190818152602001828054610b87906117da565b8015610bd45780601f10610ba957610100808354040283529160200191610bd4565b820191906000526020600020905b815481529060010190602001808311610bb757829003601f168201915b50505050508152602001600482018054610bed906117da565b80601f0160208091040260200160405190810160405280929190818152602001828054610c19906117da565b8015610c665780601f10610c3b57610100808354040283529160200191610c66565b820191906000526020600020905b815481529060010190602001808311610c4957829003601f168201915b505050505081526020016005820154815260200160068201548152602001600782015481526020016008820160009054906101000a900460ff1615151515815250509050919050565b60005481565b60008211610cf8576040517f08c379a0000000000000000000000000000000000000000000000000000000008152600401610cef90611b4b565b60405180910390fd5b60008111610d3b576040517f08c379a0000000000000000000000000000000000000000000000000000000008152600401610d3290611bb7565b60405180910390fd5b600080815480929190610d4d90611c06565b91905055506040518061012001604052803373ffffffffffffffffffffffffffffffffffffffff1681526020018781526020018681526020018581526020018481526020018381526020016201518083610da79190611c4e565b42610db29190611c90565b81526020016000815260200160001515815250600160008054815260200190815260200160002060008201518160000160006101000a81548173ffffffffffffffffffffffffffffffffffffffff021916908373ffffffffffffffffffffffffffffffffffffffff1602179055506020820151816001019081610e359190611e70565b506040820151816002019081610e4b9190611e70565b506060820151816003019081610e619190611e70565b506080820151816004019081610e779190611e70565b5060a0820151816005015560c0820151816006015560e082015181600701556101008201518160080160006101000a81548160ff0219169083151502179055509050503373ffffffffffffffffffffffffffffffffffffffff166000547fdc26653af5b99b2da33e2ad69ee6600d9aeccc82b034501db4338309615ca23888856201518086610f069190611c4e565b42610f119190611c90565b604051610f2093929190611f42565b60405180910390a3505050505050565b600060016000838152602001908152602001600020905080600601544210610f8d576040517f08c379a0000000000000000000000000000000000000000000000000000000008152600401610f8490611fcc565b60405180910390fd5b60003411610fd0576040517f08c379a0000000000000000000000000000000000000000000000000000000008152600401610fc790612038565b60405180910390fd5b34816007016000828254610fe49190611c90565b92505081905550346002600084815260200190815260200160002060003373ffffffffffffffffffffffffffffffffffffffff1673ffffffffffffffffffffffffffffffffffffffff168152602001908152602001600020600082825461104b9190611c90565b925050819055503373ffffffffffffffffffffffffffffffffffffffff16827f865c884d49c8cecaef108efb20f7d282f26c0f9b0d24dd48e5592d4e02ec658d3460405161109991906113eb565b60405180910390a35050565b60006002600084815260200190815260200160002060008373ffffffffffffffffffffffffffffffffffffffff1673ffffffffffffffffffffffffffffffffffffffff16815260200190815260200160002054905092915050565b604051806101200160405280600073ffffffffffffffffffffffffffffffffffffffff168152602001606081526020016060815260200160608152602001606081526020016000815260200160008152602001600081526020016000151581525090565b6000604051905090565b600080fd5b600080fd5b6000819050919050565b61118b81611178565b811461119657600080fd5b50565b6000813590506111a881611182565b92915050565b6000602082840312156111c4576111c361116e565b5b60006111d284828501611199565b91505092915050565b600073ffffffffffffffffffffffffffffffffffffffff82169050919050565b6000611206826111db565b9050919050565b611216816111fb565b82525050565b600081519050919050565b600082825260208201905092915050565b60005b8381101561125657808201518184015260208101905061123b565b60008484015250505050565b6000601f19601f8301169050919050565b600061127e8261121c565b6112888185611227565b9350611298818560208601611238565b6112a181611262565b840191505092915050565b6112b581611178565b82525050565b60008115159050919050565b6112d0816112bb565b82525050565b6000610120820190506112ec600083018c61120d565b81810360208301526112fe818b611273565b90508181036040830152611312818a611273565b905081810360608301526113268189611273565b9050818103608083015261133a8188611273565b905061134960a08301876112ac565b61135660c08301866112ac565b61136360e08301856112ac565b6113716101008301846112c7565b9a9950505050505050505050565b611388816111fb565b811461139357600080fd5b50565b6000813590506113a58161137f565b92915050565b600080604083850312156113c2576113c161116e565b5b60006113d085828601611199565b92505060206113e185828601611396565b9150509250929050565b600060208201905061140060008301846112ac565b92915050565b61140f816111fb565b82525050565b600082825260208201905092915050565b60006114318261121c565b61143b8185611415565b935061144b818560208601611238565b61145481611262565b840191505092915050565b61146881611178565b82525050565b611477816112bb565b82525050565b6000610120830160008301516114966000860182611406565b50602083015184820360208601526114ae8282611426565b915050604083015184820360408601526114c88282611426565b915050606083015184820360608601526114e28282611426565b915050608083015184820360808601526114fc8282611426565b91505060a083015161151160a086018261145f565b5060c083015161152460c086018261145f565b5060e083015161153760e086018261145f565b5061010083015161154c61010086018261146e565b508091505092915050565b60006020820190508181036000830152611571818461147d565b905092915050565b600080fd5b600080fd5b7f4e487b7100000000000000000000000000000000000000000000000000000000600052604160045260246000fd5b6115bb82611262565b810181811067ffffffffffffffff821117156115da576115d9611583565b5b80604052505050565b60006115ed611164565b90506115f982826115b2565b919050565b600067ffffffffffffffff82111561161957611618611583565b5b61162282611262565b9050602081019050919050565b82818337600083830152505050565b600061165161164c846115fe565b6115e3565b90508281526020810184848401111561166d5761166c61157e565b5b61167884828561162f565b509392505050565b600082601f83011261169557611694611579565b5b81356116a584826020860161163e565b91505092915050565b60008060008060008060c087890312156116cb576116ca61116e565b5b600087013567ffffffffffffffff8111156116e9576116e8611173565b5b6116f589828a01611680565b965050602087013567ffffffffffffffff81111561171657611715611173565b5b61172289828a01611680565b955050604087013567ffffffffffffffff81111561174357611742611173565b5b61174f89828a01611680565b945050606087013567ffffffffffffffff8111156117705761176f611173565b5b61177c89828a01611680565b935050608061178d89828a01611199565b92505060a061179e89828a01611199565b9150509295509295509295565b7f4e487b7100000000000000000000000000000000000000000000000000000000600052602260045260246000fd5b600060028204905060018216806117f257607f821691505b602082108103611805576118046117ab565b5b50919050565b7f43616d706169676e206e6f7420656e6465640000000000000000000000000000600082015250565b6000611841601283611227565b915061184c8261180b565b602082019050919050565b6000602082019050818103600083015261187081611834565b9050919050565b7f476f616c20776173206d65740000000000000000000000000000000000000000600082015250565b60006118ad600c83611227565b91506118b882611877565b602082019050919050565b600060208201905081810360008301526118dc816118a0565b9050919050565b7f4e6f20636f6e747269627574696f6e20746f20726566756e6400000000000000600082015250565b6000611919601983611227565b9150611924826118e3565b602082019050919050565b600060208201905081810360008301526119488161190c565b9050919050565b7f4e6f74207468652063616d706169676e206f776e657200000000000000000000600082015250565b6000611985601683611227565b91506119908261194f565b602082019050919050565b600060208201905081810360008301526119b481611978565b9050919050565b7f43616d706169676e207374696c6c2072756e6e696e6700000000000000000000600082015250565b60006119f1601683611227565b91506119fc826119bb565b602082019050919050565b60006020820190508181036000830152611a20816119e4565b9050919050565b7f476f616c206e6f74207265616368656400000000000000000000000000000000600082015250565b6000611a5d601083611227565b9150611a6882611a27565b602082019050919050565b60006020820190508181036000830152611a8c81611a50565b9050919050565b7f46756e647320616c726561647920636c61696d65640000000000000000000000600082015250565b6000611ac9601583611227565b9150611ad482611a93565b602082019050919050565b60006020820190508181036000830152611af881611abc565b9050919050565b7f476f616c206d7573742062652067726561746572207468616e207a65726f0000600082015250565b6000611b35601e83611227565b9150611b4082611aff565b602082019050919050565b60006020820190508181036000830152611b6481611b28565b9050919050565b7f4475726174696f6e206d757374206265206174206c6561737420312064617900600082015250565b6000611ba1601f83611227565b9150611bac82611b6b565b602082019050919050565b60006020820190508181036000830152611bd081611b94565b9050919050565b7f4e487b7100000000000000000000000000000000000000000000000000000000600052601160045260246000fd5b6000611c1182611178565b91507fffffffffffffffffffffffffffffffffffffffffffffffffffffffffffffffff8203611c4357611c42611bd7565b5b600182019050919050565b6000611c5982611178565b9150611c6483611178565b9250828202611c7281611178565b91508282048414831517611c8957611c88611bd7565b5b5092915050565b6000611c9b82611178565b9150611ca683611178565b9250828201905080821115611cbe57611cbd611bd7565b5b92915050565b60008190508160005260206000209050919050565b60006020601f8301049050919050565b600082821b905092915050565b600060088302611d267fffffffffffffffffffffffffffffffffffffffffffffffffffffffffffffffff82611ce9565b611d308683611ce9565b95508019841693508086168417925050509392505050565b6000819050919050565b6000611d6d611d68611d6384611178565b611d48565b611178565b9050919050565b6000819050919050565b611d8783611d52565b611d9b611d9382611d74565b848454611cf6565b825550505050565b600090565b611db0611da3565b611dbb818484611d7e565b505050565b5b81811015611ddf57611dd4600082611da8565b600181019050611dc1565b5050565b601f821115611e2457611df581611cc4565b611dfe84611cd9565b81016020851015611e0d578190505b611e21611e1985611cd9565b830182611dc0565b50505b505050565b600082821c905092915050565b6000611e4760001984600802611e29565b1980831691505092915050565b6000611e608383611e36565b9150826002028217905092915050565b611e798261121c565b67ffffffffffffffff811115611e9257611e91611583565b5b611e9c82546117da565b611ea7828285611de3565b600060209050601f831160018114611eda5760008415611ec8578287015190505b611ed28582611e54565b865550611f3a565b601f198416611ee886611cc4565b60005b82811015611f1057848901518255600182019150602085019450602081019050611eeb565b86831015611f2d5784890151611f29601f891682611e36565b8355505b6001600288020188555050505b505050505050565b60006060820190508181036000830152611f5c8186611273565b9050611f6b60208301856112ac565b611f7860408301846112ac565b949350505050565b7f43616d706169676e20656e646564000000000000000000000000000000000000600082015250565b6000611fb6600e83611227565b9150611fc182611f80565b602082019050919050565b60006020820190508181036000830152611fe581611fa9565b9050919050565b7f53656e642045544820746f20636f6e7472696275746500000000000000000000600082015250565b6000612022601683611227565b915061202d82611fec565b602082019050919050565b6000602082019050818103600083015261205181612015565b905091905056fea2646970667358221220751db938ae362b13f15013977e0f8173b5e097f5aa3fa68584c00d138106361e64736f6c63430008140033",
  "linkReferences": {},
  "deployedLinkReferences": {}
}